:02000002D0002C
:1040000000400D0044540D00000006000C000501A6
:084010000401BD0B00000000DB
:04401800F0510D0056
:10401C0009480A49884208B505D0094A824202D0AB
:10402C00121A01F09DF80748074A0021121A01F0F4
:10403C00A5F8014808BD00BFCCE50320B4530D0022
:10404C0034E6032034E60320F0E7032070B5074E76
:10405C00074C00F093FFA41BA4080025A54200D137
:10406C0070BD56F8043B98470135F7E78C530D00AB
:10407C00B0530D0000F078B808B500F035F8BDE885
:10408C00084000F03DBF00F09FBA00F0A5BA0078E0
:10409C00B0FA80F04009704701230370704710B5E7
:1040AC000446006808B100F097FA204610BD0000E5
:1040BC0013B50B4C2178BFF35B8F11F001010BD1C1
:1040CC0020460191FFF7E3FF019928B1054800F064
:1040DC00E3FC2046FFF7E0FF024802B010BD00BF32
:1040EC0038E603203CE603201FB500F07FFE036892
:1040FC001B6998470028F8D000F078FE03685B69CC
:10410C009847C4B200F072FE00F064FE0028F9D0AB
:10411C00002105208DF80C4000F0B1FFFFF7C8FF1F
:10412C000023009302AA012303A900F043FD0121FF
:10413C00052000F0A4FF3F2C10D19DF8083023B9C6
:10414C0000F054FE064900F064FC9DF80830012B89
:10415C0004D100F04BFE034900F05BFC04B010BD31
:10416C0004520D0008520D0008B50121052000F085
:10417C0075FFFFF79DFF0522002100F097FCFFF76C
:10418C0097FF0B4A012100F0E3FCFFF791FF01219F
:10419C0000F0A2FCFFF78CFF002100F0B0FC00F057
:1041AC0025FEBDE808404FF4165100F00FBE00BFCD
:1041BC0040420F0038B50A4C0A4BA360002503207F
:1041CC002560A580A57100F073F90749074A2046C0
:1041DC0000F0AEFF29460120BDE8384000F070B970
:1041EC0044E603200000FFFFAB400D0034E6032043
:1041FC0008B5024B1B685B6C019308BD48020300B9
:10420C0008B5024B1B689B6C019308BD4802030068
:10421C0008B5024B1B685B68019308BD18020300CC
:10422C0008B5024B1B685B69019308BD18020300BB
:10423C0008B5024B1B689B68019308BD2C02030058
:10424C0008B5024B1B68DB68019308BD2C02030008
:10425C0008B5024B1B681B69019308BD2C020300B7
:10426C0008B5024B1B681B6A019308BD28020300AA
:10427C0008B5024B1B685B6A019308BD280203005A
:10428C0008B5024B1B689B6A019308BD280203000A
:10429C0008B5024B1B68DB6A019308BD28020300BA
:1042AC0008B5024B1B681B6B019308BD2802030069
:1042BC0008B5024B1B685B6B019308BD2802030019
:1042CC0008B5024B1B681B6C019308BD2802030048
:1042DC0008B5024B1B685B69019308BD64020300BF
:1042EC0008B5024B1B689B68019308BD680203006C
:1042FC0008B5024B1B68DB68019308BD680203001C
:10430C0008B5024B1B689B68019308BD3002030083
:10431C0008B5024B1B68DB68019308BD3002030033
:10432C0008B5024B1B681B69019308BD30020300E2
:10433C0008B5024B1B68DB69019308BD3002030012
:10434C0008B5024B1B681B6A019308BD30020300C1
:10435C0008B5024B1B685B6A019308BD3002030071
:10436C0008B5024B1B689B6A019308BD3002030021
:10437C0008B5024B1B68DB6A019308BD30020300D1
:10438C0008B5024B1B689B6B019308BD3002030000
:10439C0008B5024B1B681B6C019308BD300203006F
:1043AC0008B5024B1B685B6C019308BD300203001F
:1043BC0008B5024B1B681B68019308BD3C02030047
:1043CC0008B5024B1B68DB68019308BD3C02030077
:1043DC0008B5024B1B681B69019308BD3C02030026
:1043EC0008B5024B1B685B69019308BD3C020300D6
:1043FC0008B5024B1B689B69019308BD3C02030086
:10440C0008B5024B1B68DB69019308BD3C02030035
:10441C0008B5024B1B681B6A019308BD3C020300E4
:10442C0008B5024B1B689B6A019308BD3C02030054
:10443C0008B5024B1B681B68019308BD4C020300B6
:10444C0008B5024B1B685B68019308BD4C02030066
:10445C0008B5024B1B681B69019308BD4C02030095
:10446C0008B5024B1B685B69019308BD4C02030045
:10447C0008B5024B1B689B69019308BD4C020300F5
:10448C0008B5024B1B68DB69019308BD4C020300A5
:10449C0008B5024B1B681B6A019308BD4C02030054
:1044AC0008B5024B1B689B6A019308BD4C020300C4
:1044BC0008B5024B1B685B68019308BD2002030022
:1044CC0008B5024B1B68DB6A019308BD2002030090
:1044DC0008B5034B1B68D3F88830019308BD000066
:1044EC002002030008B5034B1B68D3F894300193EA
:1044FC0008BD00002002030008B5024B1B68DB6BF3
:10450C00019308BD4402030008B5024B1B685B68AD
:10451C00019308BD4002030008B5024B1B689B6861
:10452C00019308BD4002030008B5024B1B68DB6811
:10453C00019308BD4002030008B5024B1B681B69C0
:10454C00019308BD4002030008B5024B1B685B6970
:10455C00019308BD4002030008B5024B1B689B6920
:10456C00019308BD4002030008B5024B1B68DB69D0
:10457C00019308BD4002030008B5024B1B681B6A7F
:10458C00019308BD4002030008B5024B1B681B6B6E
:10459C00019308BD4002030008B5024B1B685B6B1E
:1045AC00019308BD4002030008B5024B1B681B6C4D
:1045BC00019308BD4002030008B5024B1B685B6CFD
:1045CC00019308BD4002030008B5024B1B681B6831
:1045DC00019308BD1C02030008B5024B1B685B6805
:1045EC00019308BD1C02030008B5024B1B685B6CF1
:1045FC00019308BD1C02030010B50446006808B105
:10460C00FFF7FEFD204610BD10B58368044613B1BC
:10461C00032201469847204610BD000010B5064CF9
:10462C00002320462360FFF7E3FD2046034A04499C
:10463C00BDE8104000F07CBD50E6032034E60320BA
:10464C0005460D00002240681146FFF795BF002279
:10465C0040681146FFF7A0BF40680022FFF794BFE7
:10466C004068002281F00101FFF77EBF0023406803
:10467C001A461946FFF770BF002340681A461946C0
:10468C00FFF762BF002240681146FFF755BF0022BA
:10469C0040681146FFF740BF406800220221FFF737
:1046AC0043BF002340681A46FFF72EBF024B03227C
:1046BC005A60024A1A60704754E6032018520D00E3
:1046CC007047F8B5064615460C468F18BC4206D006
:1046DC00336814F8011B9B6830469847F6E7284668
:1046EC00F8BD007C0022FFF7BBBD007C0021FFF76A
:1046FC00BFBD007C0021FFF7C3BD007C0021FFF78C
:10470C00C7BD007C0021FFF7CBBD10B514210446BA
:10471C0000F013FD204610BD10B54FF47A7304461B
:10472C0008460021C4E90113034B23602074114691
:10473C00FFF7C6FD204610BD54520D00704710B552
:10474C001821044600F0F9FC204610BDF0B5037D9D
:10475C00062B8DB00E4600F104074FF0000412D06A
:10476C0000F1080515F8011D0A22304600F05BF92E
:10477C00AF42044419D0002CF4D02E21304600F066
:10478C0039F90444EEE72F236A4639460A208DF89E
:10479C000040FFF79DFD684600F01CFD33680246A3
:1047AC00DB68694630469847044620460DB0F0BD9C
:1047BC0010B5054B0446112240F8043B002100F0D3
:1047CC00DDFC204610BD00BF7C520D000346074A9D
:1047DC0010B543F8042B01F1100251F8044B43F8C7
:1047EC00044B9142F9D10A781A7010BD7C520D001D
:1047FC0010B59DF8084044EA032343EA024242EA1A
:10480C00016104234160037510BD000013B5054B15
:10481C000360CB7800938B784A780978FFF7E8FF30
:10482C0002B010BD7C520D00014B024A1A60704759
:10483C005CE6032088520D00002340681A46FFF7FF
:10484C0063BE406800220221FFF76EBE0022406862
:10485C001146FFF761BE002240681146FFF76CBE9F
:10486C00002340681A461946FFF76EBE00234068C5
:10487C001A461946FFF770BE40680021FFF794BE38
:10488C0040680021FFF798BE4068002281F00101CA
:10489C00FFF76ABE40680022FFF776BE0022406830
:1048AC001146FFF779BE002240681146FFF764BE3F
:1048BC002DE9F043002495B016460D460746FFF748
:1048CC0077FF214618220EA8009400F057FC4023D5
:1048DC00CDE90C3421466B460CAA3046FFF708FD97
:1048EC00044600284CD1024601216868FFF724FEDB
:1048FC000221804622466868FFF71EFE009E814614
:10490C002146002E3CD000293AD17368022B03D0EB
:10491C000A2B11D0F669F4E7B8F1000F0AD07169CF
:10492C0006A8043107ADFFF771FF0FCD3C1D0FC476
:10493C002B6823704146EDE7B9F1000F01D14946D0
:10494C00E8E77469102201A800F018FC06238DF822
:10495C00143001AD04F108031834186859682A465C
:10496C0003C20833A3421546F7D101A906A807AD27
:10497C00FFF72CFF0FCD3C1D0FC42B682370DEE717
:10498C000098FFF7ADFC384615B0BDE8F083000089
:10499C00024B034A1A6000225A60704760E60320FB
:1049AC0094520D00F8B506460D468F180024BD42F2
:1049BC000CD0336815F8011B9B6830469847031ED2
:1049CC0001DB1C44F3E7002C08BF1C462046F8BD55
:1049DC0013B50446084659B1019100F0FBFB23685E
:1049EC000199DB680246204602B0BDE8104018472A
:1049FC0002B010BD03689B68184738B50D210546F9
:104A0C00FFF7F8FF0A2104462846FFF7F3FF20447E
:104A1C0038BD38B50546FFF7DBFF04462846FFF7DF
:104A2C00ECFF204438BD30B58BB000238DF824301A
:104A3C00012A98BF0A2209AC0D46B1FBF2F101FB29
:104A4C00125303F0FF03092B94BF30333733DBB21F
:104A5C00AA4204F8013DEFD92146FFF7B9FF0BB08C
:104A6C0030BD10B50446FFF7CFFD204610BD000049
:104A7C000348044A04490023836000F059BB00BF7B
:104A8C0068E6032034E603206F4A0D000021FFF78F
:104A9C007FBC0021FFF784BC10B50446084621708A
:104AAC00FFF746FC00236360204610BD13B5044697
:104ABC000078CDE90021FFF7E9FFDDE9002103468D
:104ACC0040B92078FFF754FC207802B0BDE81040C4
:104ADC00FFF7DFBF02B010BD13B50446007801919B
:104AEC00FFF7D4FF019940B92078FFF709FC207833
:104AFC0002B0BDE81040FFF7CCBF02B010BD13B53B
:104B0C00044600780191FFF7C1FF019940B9207864
:104B1C00FFF7FEFB207802B0BDE81040FFF7B9BFED
:104B2C0002B010BD400830B51860002418688842E7
:104B3C00E5B206D90134082C02D040081860F5E71C
:104B4C000725024B5B5D137030BD00BFC8520D00D2
:104B5C002DE9F04188B000230446007802930E46FC
:104B6C001746FFF793FF054600BB94F800800146FB
:104B7C00142203A800F002FB0B232A4603A940468B
:104B8C00ADF80C30FFF7E4FB04988DF8075002AB3E
:104B9C000DF1070207FB06F1FFF7C4FF20789DF823
:104BAC000710FFF7BDFB2078FFF773FF029808B0E2
:104BBC00BDE8F08130B587B004460A9D00950078B9
:104BCC00FFF7CEFB3DB9207802A9FFF7D9FB9DF882
:104BDC001430DB07F7D407B030BD000010B5094B1B
:104BEC00094C022200201A60084B2060A080A071A2
:104BFC00A360FFF75DFC2046054A0649BDE810405E
:104C0C0000F096BA84E6032078E603200000FFFF4C
:104C1C0034E60320AB400D00024B1A68024B1A60BD
:104C2C00704700BFCCE5032088E603207047417431
:104C3C00704708B5007CFFF7F3FB20EAE07008BD75
:104C4C0008B5007CFFF7C4FB20EAE07008BD08B58E
:104C5C00007CFFF7CDFB40EAE07008BD08B5007C96
:104C6C00FFF7BEFB40EAE07008BD007CFFF7C8BB55
:104C7C0037B5457C04462DB1207C03B0BDE83040EF
:104C8C00FFF79EBB007C0191FFF7CAFB002801993E
:104C9C00F2DC284603B030BD10B51421044600F0F8
:104CAC004CFA204610BD000010B54FF0000C044625
:104CBC00084611464FF47A72C4E901C2044A2260D4
:104CCC000122207462741A46FFF772FB204610BD55
:104CDC00F4520D0013B50E4C2178BFF35B8F11F01D
:104CEC00010112D120460191FFF7D1F9019960B170
:104CFC00084A094B0948FFF7D7FF2046FFF7CCF9C4
:104D0C00074A0849054800F013FA044802B010BDE0
:104D1C008CE6032090E6032014E7032098E7032099
:104D2C0034E60320394C0D0041747047704708B5C8
:104D3C000021007CFFF79CFB40EAE07008BD08B541
:104D4C000121007CFFF794FB40EAE07008BD08B538
:104D5C00007CFFF785FB20EAE07008BD08B5007CFD
:104D6C00FFF776FB20EAE07008BD13B50446007C23
:104D7C000191FFF775FB0028019901DC607C20B1E3
:104D8C00207CFFF77DFB20EAE07002B010BD007CB8
:104D9C00FFF77EBB10B51421044600F0CEF9204677
:104DAC0010BD000010B54FF47A730446084600217C
:104DBC00C4E90113044B236001232074637411466E
:104DCC00FFF736FB204610BD24530D00007C00225B
:104DDC00FFF736BB007CFFF763BB10B5142204460B
:104DEC00002100F0CBF9204610BD000010B5104C8E
:104DFC0088B003A8FFF7F1FF2178BFF35B8F11F0A8
:104E0C00010111D120460191FFF741F9019958B1E7
:104E1C0003AA0848FFF7C6FF2046FFF73DF9064AEC
:104E2C000649044800F084F9024808B010BD00BFE0
:104E3C00ACE70320B0E7032034E60320394D0D0026
:104E4C00002240681146FFF777BB002240681146EC
:104E5C00FFF792BB002240681146FFF79DBB4068EC
:104E6C000022FFF791BB4068002281F00101FFF79F
:104E7C007BBB002340681A461946FFF76DBB002325
:104E8C0040681A461946FFF75FBB0022406811467E
:104E9C00FFF742BB406800220221FFF745BB00230D
:104EAC0040681A46FFF730BB024B04225A60024A94
:104EBC001A607047C4E7032054530D00014B18606F
:104ECC00704700BFD0E5032008B50B4B43B1FFF78B
:104EDC008DFF03681B699847002801DDAFF3008044
:104EEC00064B43B1FFF7F6FE03681B699847002891
:104EFC0001DDAFF3008008BD0000000000000000E1
:104F0C0008B5FFF7E1FFFFF78BF9014B186008BDFF
:104F1C00D4E703200248034A0349121A00F020B9CF
:104F2C0000F4032004F40320B0530D0007B5002354
:104F3C0000931A466FF07701FFF7D4FA03B05DF8CF
:104F4C0004FB000007B543880A2B08D0502B0BD16B
:104F5C00094B1B684BB103B05DF804EB1847FFF726
:104F6C00E5FF03B05DF804FB002300931A466FF0D5
:104F7C007701FFF7B7FAF4E7D0E7032038B5124C06
:104F8C001248134D0021FFF72FFB2368AB42114B46
:104F9C000CBF012200221A7002D0FFF7BBFF256064
:104FAC00FFF736F9044600F0F1F80B4B13B120462D
:104FBC00AFF3008000210848FFF79EFABDE83840A7
:104FCC0006480021FFF784BA00F40320C94E0D00F7
:104FDC001E1C279ACCE7032000000000514F0D0047
:104FEC00232813B502D9002002B010BDA0F10B0389
:104FFC00022B1AD8174C2178BFF35B8F11F00101EB
:10500C000BD120460191FFF742F8019928B11248C3
:10501C00FFF742FD2046FFF73FF80F4B1878FFF7DC
:10502C008FF90028DFD10120DEE7012809D800F034
:10503C0057F80021007CFFF73BF980F00100C0B26B
:10504C00D2E709380128EED8FFF744FE007CFFF7C1
:10505C00DFF9F2E738E603203CE60320232838B5D5
:10506C0004460D460AD8FF2908D0FFF7B9FF28B12E
:10507C0029462046BDE83840FFF7DAB838BD38B5C8
:10508C0004460D46FFF7DCF8FF2810D0062804D89C
:10509C004D2323FA00F0C30709D42046FFF7A0FFE5
:1050AC0028B129462046BDE83840FFF7D1B838BDB5
:1050BC0038B50023202543801423044603808560E3
:1050CC0005610649284600F03AF804496060284614
:1050DC0000F035F8E060204638BD00BF88530D0065
:1050EC0030B50F4D2978BFF35B8F11F0010487B0F9
:1050FC0013D12846FEF7CBFF78B101A8FFF7D8FFF4
:10510C0001AA21460748FFF707FB2846FEF7C4FF14
:10511C00054A0649034800F00BF8024807B030BDB9
:10512C00D8E70320DCE7032034E60320CD460D004E
:10513C000B460146184600F005B8FEF7A6BFFEF771
:10514C00A2BF000010B5054C13462CB10A4601460F
:10515C000220AFF3008010BD2046FCE700000000E9
:10516C000A44914200F1FF3300D1704710B511F899
:10517C00014B03F8014F9142F9D110BD0244034693
:10518C00934200D1704703F8011BF9E738B50D4B7A
:10519C001D68AB6B04467BB91820FFF715FA0A4A59
:1051AC000A4BA863C0E90023094B83600B2383815E
:1051BC0001220023C0E90423AB6B00221C615A615D
:1051CC0038BD00BFD0E503200E33CDAB34126DE6F5
:1051DC00ECDE0500034613F8012B002AFBD1181A4C
:1051EC00013870471D400D0059400D0081400D00E5
:1051FC0085400D00000000004C4F570048494748BF
:10520C00000000000000000000000000AF460D0090
:10521C00A5460D009B460D0091460D0085460D00E0
:10522C0079460D0085480D008D480D006D460D002A
:10523C0065460D005B460D0051460D00BD480D0046
:10524C000000000000000000CD460D0017470D00C7
:10525C00EF460D00CF460D00F7460D00FF460D0042
:10526C0007470D000F470D00000000000000000074
:10527C0059470D0049470D004B470D0061707000F8
:10528C00000000000000000045480D004F480D00D4
:10529C0059480D0063480D006D480D0079480D000C
:1052AC0085480D008D480D0095480D00A1480D0056
:1052BC00A9480D00B3480D00BD480D00000810189A
:1052CC002028303825592D256D2D25645425483A34
:1052DC00254D3A2553257A0061736374696D650019
:1052EC000000000000000000394C0D00A54C0D0022
:1052FC007D4C0D00B1490D004D4C0D00694C0D005D
:10530C005B4C0D00774C0D003B4C0D003F4C0D00E1
:10531C000000000000000000394D0D00A14D0D00F3
:10532C00774D0D00B1490D00694D0D003B4D0D0041
:10533C004B4D0D009B4D0D005B4D0D00354D0D0083
:10534C000000000000000000AB4E0D00A14E0D004F
:10535C00974E0D004D4E0D008B4E0D007F4E0D00E7
:10536C0085480D008D480D00734E0D006B4E0D00E1
:10537C00614E0D00574E0D00BD480D0000000000A1
:10538C00C1410D0029460D00B9460D0035480D00F0
:10539C009D490D007D4A0D00E94B0D00254C0D007B
:0453AC00B54E0D00ED
:0453B00000000000F9
:1053B400E4520D00D4E503200000000000000000CA
:1053C40000000000000000000000000000000000D9
:1053D40000000000000000000000000000000000C9
:1053E40000000000000000000000000000000000B9
:1053F40000000000000000000000000000000000A9
:105404000000000000000000000000000000000098
:08541400000000000000000090
:10541C00FFFFFFFF00000102030405060708090A4D
:10542C000B0C0D0E0F101112131415161718191A48
:08543C001B1C1D1E1F2028008F
:045444007856341250
:04000003D000401CCD
:00000001FF
